{
  "_format": "hh-sol-artifact-1",
  "contractName": "VotingSessions",
  "sourceName": "contracts/VotingSessions.sol",
  "abi": [
    {
      "anonymous": false,
      "inputs": [
        {
          "indexed": false,
          "internalType": "uint256",
          "name": "sessionId",
          "type": "uint256"
        },
        {
          "indexed": false,
          "internalType": "string",
          "name": "title",
          "type": "string"
        },
        {
          "indexed": false,
          "internalType": "bool",
          "name": "isSuperElectorVote",
          "type": "bool"
        }
      ],
      "name": "SessionCreated",
      "type": "event"
    },
    {
      "anonymous": false,
      "inputs": [
        {
          "indexed": false,
          "internalType": "address",
          "name": "superElector",
          "type": "address"
        },
        {
          "indexed": false,
          "internalType": "uint256",
          "name": "weight",
          "type": "uint256"
        },
        {
          "indexed": false,
          "internalType": "uint256",
          "name": "governanceTokens",
          "type": "uint256"
        }
      ],
      "name": "SuperElectorElected",
      "type": "event"
    },
    {
      "anonymous": false,
      "inputs": [
        {
          "indexed": false,
          "internalType": "uint256",
          "name": "sessionId",
          "type": "uint256"
        },
        {
          "indexed": false,
          "internalType": "address",
          "name": "voter",
          "type": "address"
        },
        {
          "indexed": false,
          "internalType": "uint256",
          "name": "proposalIndex",
          "type": "uint256"
        }
      ],
      "name": "Voted",
      "type": "event"
    },
    {
      "inputs": [
        {
          "internalType": "uint256",
          "name": "_sessionId",
          "type": "uint256"
        }
      ],
      "name": "closeSession",
      "outputs": [],
      "stateMutability": "nonpayable",
      "type": "function"
    },
    {
      "inputs": [
        {
          "internalType": "string",
          "name": "_title",
          "type": "string"
        },
        {
          "internalType": "string[]",
          "name": "_proposals",
          "type": "string[]"
        },
        {
          "internalType": "bool",
          "name": "_isSuperElectorVote",
          "type": "bool"
        }
      ],
      "name": "createSession",
      "outputs": [],
      "stateMutability": "nonpayable",
      "type": "function"
    },
    {
      "inputs": [
        {
          "internalType": "uint256",
          "name": "_sessionId",
          "type": "uint256"
        }
      ],
      "name": "getSessionInfo",
      "outputs": [
        {
          "internalType": "string",
          "name": "title",
          "type": "string"
        },
        {
          "internalType": "bool",
          "name": "isOpen",
          "type": "bool"
        },
        {
          "internalType": "string[]",
          "name": "proposals",
          "type": "string[]"
        },
        {
          "internalType": "bool",
          "name": "isSuperElectorVote",
          "type": "bool"
        }
      ],
      "stateMutability": "view",
      "type": "function"
    },
    {
      "inputs": [
        {
          "internalType": "address",
          "name": "_elector",
          "type": "address"
        }
      ],
      "name": "isSuperElector",
      "outputs": [
        {
          "internalType": "bool",
          "name": "",
          "type": "bool"
        },
        {
          "internalType": "uint256",
          "name": "",
          "type": "uint256"
        },
        {
          "internalType": "uint256",
          "name": "",
          "type": "uint256"
        }
      ],
      "stateMutability": "view",
      "type": "function"
    },
    {
      "inputs": [
        {
          "internalType": "address",
          "name": "",
          "type": "address"
        }
      ],
      "name": "normalElectors",
      "outputs": [
        {
          "internalType": "bool",
          "name": "",
          "type": "bool"
        }
      ],
      "stateMutability": "view",
      "type": "function"
    },
    {
      "inputs": [],
      "name": "registerNormalElector",
      "outputs": [],
      "stateMutability": "nonpayable",
      "type": "function"
    },
    {
      "inputs": [],
      "name": "sessionCount",
      "outputs": [
        {
          "internalType": "uint256",
          "name": "",
          "type": "uint256"
        }
      ],
      "stateMutability": "view",
      "type": "function"
    },
    {
      "inputs": [
        {
          "internalType": "uint256",
          "name": "",
          "type": "uint256"
        }
      ],
      "name": "sessions",
      "outputs": [
        {
          "internalType": "address",
          "name": "owner",
          "type": "address"
        },
        {
          "internalType": "string",
          "name": "title",
          "type": "string"
        },
        {
          "internalType": "bool",
          "name": "isOpen",
          "type": "bool"
        },
        {
          "internalType": "uint256",
          "name": "id",
          "type": "uint256"
        },
        {
          "internalType": "bool",
          "name": "isSuperElectorVote",
          "type": "bool"
        }
      ],
      "stateMutability": "view",
      "type": "function"
    },
    {
      "inputs": [],
      "name": "superElectorCount",
      "outputs": [
        {
          "internalType": "uint256",
          "name": "",
          "type": "uint256"
        }
      ],
      "stateMutability": "view",
      "type": "function"
    },
    {
      "inputs": [
        {
          "internalType": "address",
          "name": "",
          "type": "address"
        }
      ],
      "name": "superElectors",
      "outputs": [
        {
          "internalType": "bool",
          "name": "isSuperElector",
          "type": "bool"
        },
        {
          "internalType": "uint256",
          "name": "weight",
          "type": "uint256"
        },
        {
          "internalType": "uint256",
          "name": "governanceTokens",
          "type": "uint256"
        }
      ],
      "stateMutability": "view",
      "type": "function"
    },
    {
      "inputs": [
        {
          "internalType": "uint256",
          "name": "_sessionId",
          "type": "uint256"
        },
        {
          "internalType": "uint256",
          "name": "_proposalIndex",
          "type": "uint256"
        }
      ],
      "name": "vote",
      "outputs": [],
      "stateMutability": "nonpayable",
      "type": "function"
    }
  ],
  "bytecode": "0x6080604052348015600f57600080fd5b506120c48061001f6000396000f3fe608060405234801561001057600080fd5b50600436106100a95760003560e01c806383c4b7a31161007157806383c4b7a31461017e5780638ae2a373146101b25780639e10acf0146101bc578063a3bfdf47146101ef578063b384abef1461020b578063d3ba634514610227576100a9565b806301fe2d20146100ae5780631b043cf9146100e05780636b850c8e146100fe57806373cd83361461012e5780637aff51e21461014c575b600080fd5b6100c860048036038101906100c391906110be565b610243565b6040516100d79392919061111f565b60405180910390f35b6100e86102b4565b6040516100f59190611156565b60405180910390f35b610118600480360381019061011391906110be565b6102ba565b6040516101259190611171565b60405180910390f35b6101366102da565b6040516101439190611156565b60405180910390f35b610166600480360381019061016191906110be565b6102e0565b6040516101759392919061111f565b60405180910390f35b610198600480360381019061019391906111b8565b610317565b6040516101a9959493929190611284565b60405180910390f35b6101ba61040f565b005b6101d660048036038101906101d191906111b8565b6104f9565b6040516101e694939291906113ea565b60405180910390f35b610209600480360381019061020491906111b8565b6106b2565b005b6102256004803603810190610220919061143d565b61079d565b005b610241600480360381019061023c91906116c4565b610b81565b005b600080600080600360008673ffffffffffffffffffffffffffffffffffffffff1673ffffffffffffffffffffffffffffffffffffffff16815260200190815260200160002090508060000160009054906101000a900460ff1681600101548260020154935093509350509193909250565b60015481565b60046020528060005260406000206000915054906101000a900460ff1681565b60005481565b60036020528060005260406000206000915090508060000160009054906101000a900460ff16908060010154908060020154905083565b60026020528060005260406000206000915090508060000160009054906101000a900473ffffffffffffffffffffffffffffffffffffffff16908060010180546103609061177e565b80601f016020809104026020016040519081016040528092919081815260200182805461038c9061177e565b80156103d95780601f106103ae576101008083540402835291602001916103d9565b820191906000526020600020905b8154815290600101906020018083116103bc57829003601f168201915b5050505050908060060160009054906101000a900460ff16908060070154908060080160009054906101000a900460ff16905085565b600360003373ffffffffffffffffffffffffffffffffffffffff1673ffffffffffffffffffffffffffffffffffffffff16815260200190815260200160002060000160009054906101000a900460ff161561049f576040517f08c379a000000000000000000000000000000000000000000000000000000000815260040161049690611821565b60405180910390fd5b6001600460003373ffffffffffffffffffffffffffffffffffffffff1673ffffffffffffffffffffffffffffffffffffffff16815260200190815260200160002060006101000a81548160ff021916908315150217905550565b606060006060600080600260008781526020019081526020016000209050806001018160060160009054906101000a900460ff16826002018360080160009054906101000a900460ff1683805461054f9061177e565b80601f016020809104026020016040519081016040528092919081815260200182805461057b9061177e565b80156105c85780601f1061059d576101008083540402835291602001916105c8565b820191906000526020600020905b8154815290600101906020018083116105ab57829003601f168201915b5050505050935081805480602002602001604051908101604052809291908181526020016000905b8282101561069c57838290600052602060002001805461060f9061177e565b80601f016020809104026020016040519081016040528092919081815260200182805461063b9061177e565b80156106885780601f1061065d57610100808354040283529160200191610688565b820191906000526020600020905b81548152906001019060200180831161066b57829003601f168201915b5050505050815260200190600101906105f0565b5050505091509450945094509450509193509193565b60006002600083815260200190815260200160002090508060000160009054906101000a900473ffffffffffffffffffffffffffffffffffffffff1673ffffffffffffffffffffffffffffffffffffffff163373ffffffffffffffffffffffffffffffffffffffff161461075b576040517f08c379a0000000000000000000000000000000000000000000000000000000008152600401610752906118b3565b60405180910390fd5b60008160060160006101000a81548160ff0219169083151502179055508060080160009054906101000a900460ff16156107995761079882610cf7565b5b5050565b60006002600084815260200190815260200160002090508060060160009054906101000a900460ff16610805576040517f08c379a00000000000000000000000000000000000000000000000000000000081526004016107fc9061191f565b60405180910390fd5b8060030160003373ffffffffffffffffffffffffffffffffffffffff1673ffffffffffffffffffffffffffffffffffffffff16815260200190815260200160002060009054906101000a900460ff1615610894576040517f08c379a000000000000000000000000000000000000000000000000000000000815260040161088b9061198b565b60405180910390fd5b806002018054905082106108dd576040517f08c379a00000000000000000000000000000000000000000000000000000000081526004016108d4906119f7565b60405180910390fd5b8060080160009054906101000a900460ff161561098557600460003373ffffffffffffffffffffffffffffffffffffffff1673ffffffffffffffffffffffffffffffffffffffff16815260200190815260200160002060009054906101000a900460ff16610980576040517f08c379a000000000000000000000000000000000000000000000000000000000815260040161097790611aaf565b60405180910390fd5b610a15565b600360003373ffffffffffffffffffffffffffffffffffffffff1673ffffffffffffffffffffffffffffffffffffffff16815260200190815260200160002060000160009054906101000a900460ff16610a14576040517f08c379a0000000000000000000000000000000000000000000000000000000008152600401610a0b90611b41565b60405180910390fd5b5b60018160030160003373ffffffffffffffffffffffffffffffffffffffff1673ffffffffffffffffffffffffffffffffffffffff16815260200190815260200160002060006101000a81548160ff021916908315150217905550818160050160003373ffffffffffffffffffffffffffffffffffffffff1673ffffffffffffffffffffffffffffffffffffffff168152602001908152602001600020819055508060080160009054906101000a900460ff16610b1357600360003373ffffffffffffffffffffffffffffffffffffffff1673ffffffffffffffffffffffffffffffffffffffff16815260200190815260200160002060010154610b16565b60015b8160040160008481526020019081526020016000206000828254610b3a9190611b90565b925050819055507f1abe610cf2bf87e57dcc1181fcf5ac0934e843d8344ab9eed6e86c799f62585e833384604051610b7493929190611bc4565b60405180910390a1505050565b600080815480929190610b9390611bfb565b9190505550600060026000805481526020019081526020016000209050338160000160006101000a81548173ffffffffffffffffffffffffffffffffffffffff021916908373ffffffffffffffffffffffffffffffffffffffff160217905550600054816007018190555060018160060160006101000a81548160ff02191690831515021790555083816001019081610c2c9190611def565b50818160080160006101000a81548160ff02191690831515021790555060005b8351811015610cb35781600201848281518110610c6c57610c6b611ec1565b5b6020026020010151908060018154018082558091505060019003906000526020600020016000909190919091509081610ca59190611def565b508080600101915050610c4c565b507f5f6c40fea62c2a515cc8ece554189d615bd78f64dcfdb39df0cd2202900248b66000548584604051610ce993929190611ef0565b60405180910390a150505050565b600060026000838152602001908152602001600020905060005b8160020180549050811015610eef576000610dd3836002018381548110610d3b57610d3a611ec1565b5b906000526020600020018054610d509061177e565b80601f0160208091040260200160405190810160405280929190818152602001828054610d7c9061177e565b8015610dc95780601f10610d9e57610100808354040283529160200191610dc9565b820191906000526020600020905b815481529060010190602001808311610dac57829003601f168201915b5050505050610ef4565b905060008360040160008481526020019081526020016000205490506000811115610ee057604051806060016040528060011515815260200182815260200182815250600360008473ffffffffffffffffffffffffffffffffffffffff1673ffffffffffffffffffffffffffffffffffffffff16815260200190815260200160002060008201518160000160006101000a81548160ff021916908315150217905550602082015181600101556040820151816002015590505060016000815480929190610e9f90611bfb565b91905055507f5580a94a889d83b82525301140ce42cf48c32af166f7d8b6016d815ff5c893fb828283604051610ed793929190611f2e565b60405180910390a15b50508080600101915050610d11565b505050565b60008082905060008060019050600060018451610f119190611f65565b90505b60028110611040576000848281518110610f3157610f30611ec1565b5b602001015160f81c60f81b60f81c905060308160ff1610158015610f59575060398160ff1611155b15610f8b5782603082610f6c9190611fa6565b60ff16610f799190611fdb565b84610f84919061201d565b935061101d565b60418160ff1610158015610fa3575060468160ff1611155b15610fd55782603782610fb69190611fa6565b60ff16610fc39190611fdb565b84610fce919061201d565b935061101c565b60618160ff1610158015610fed575060668160ff1611155b1561101b57826057826110009190611fa6565b60ff1661100d9190611fdb565b84611018919061201d565b93505b5b5b60108361102a9190611fdb565b925050808061103890612065565b915050610f14565b50819350505050919050565b6000604051905090565b600080fd5b600080fd5b600073ffffffffffffffffffffffffffffffffffffffff82169050919050565b600061108b82611060565b9050919050565b61109b81611080565b81146110a657600080fd5b50565b6000813590506110b881611092565b92915050565b6000602082840312156110d4576110d3611056565b5b60006110e2848285016110a9565b91505092915050565b60008115159050919050565b611100816110eb565b82525050565b6000819050919050565b61111981611106565b82525050565b600060608201905061113460008301866110f7565b6111416020830185611110565b61114e6040830184611110565b949350505050565b600060208201905061116b6000830184611110565b92915050565b600060208201905061118660008301846110f7565b92915050565b61119581611106565b81146111a057600080fd5b50565b6000813590506111b28161118c565b92915050565b6000602082840312156111ce576111cd611056565b5b60006111dc848285016111a3565b91505092915050565b6111ee81611080565b82525050565b600081519050919050565b600082825260208201905092915050565b60005b8381101561122e578082015181840152602081019050611213565b60008484015250505050565b6000601f19601f8301169050919050565b6000611256826111f4565b61126081856111ff565b9350611270818560208601611210565b6112798161123a565b840191505092915050565b600060a08201905061129960008301886111e5565b81810360208301526112ab818761124b565b90506112ba60408301866110f7565b6112c76060830185611110565b6112d460808301846110f7565b9695505050505050565b600081519050919050565b600082825260208201905092915050565b6000819050602082019050919050565b600082825260208201905092915050565b6000611326826111f4565b611330818561130a565b9350611340818560208601611210565b6113498161123a565b840191505092915050565b6000611360838361131b565b905092915050565b6000602082019050919050565b6000611380826112de565b61138a81856112e9565b93508360208202850161139c856112fa565b8060005b858110156113d857848403895281516113b98582611354565b94506113c483611368565b925060208a019950506001810190506113a0565b50829750879550505050505092915050565b60006080820190508181036000830152611404818761124b565b905061141360208301866110f7565b81810360408301526114258185611375565b905061143460608301846110f7565b95945050505050565b6000806040838503121561145457611453611056565b5b6000611462858286016111a3565b9250506020611473858286016111a3565b9150509250929050565b600080fd5b600080fd5b7f4e487b7100000000000000000000000000000000000000000000000000000000600052604160045260246000fd5b6114bf8261123a565b810181811067ffffffffffffffff821117156114de576114dd611487565b5b80604052505050565b60006114f161104c565b90506114fd82826114b6565b919050565b600067ffffffffffffffff82111561151d5761151c611487565b5b6115268261123a565b9050602081019050919050565b82818337600083830152505050565b600061155561155084611502565b6114e7565b90508281526020810184848401111561157157611570611482565b5b61157c848285611533565b509392505050565b600082601f8301126115995761159861147d565b5b81356115a9848260208601611542565b91505092915050565b600067ffffffffffffffff8211156115cd576115cc611487565b5b602082029050602081019050919050565b600080fd5b60006115f66115f1846115b2565b6114e7565b90508083825260208201905060208402830185811115611619576116186115de565b5b835b8181101561166057803567ffffffffffffffff81111561163e5761163d61147d565b5b80860161164b8982611584565b8552602085019450505060208101905061161b565b5050509392505050565b600082601f83011261167f5761167e61147d565b5b813561168f8482602086016115e3565b91505092915050565b6116a1816110eb565b81146116ac57600080fd5b50565b6000813590506116be81611698565b92915050565b6000806000606084860312156116dd576116dc611056565b5b600084013567ffffffffffffffff8111156116fb576116fa61105b565b5b61170786828701611584565b935050602084013567ffffffffffffffff8111156117285761172761105b565b5b6117348682870161166a565b9250506040611745868287016116af565b9150509250925092565b7f4e487b7100000000000000000000000000000000000000000000000000000000600052602260045260246000fd5b6000600282049050600182168061179657607f821691505b6020821081036117a9576117a861174f565b5b50919050565b7f4c65732073757065722d656c65637465757273206e652070657576656e74207060008201527f6173207327696e73637269726520636f6d6d65206e6f726d6175782e00000000602082015250565b600061180b603c836111ff565b9150611816826117af565b604082019050919050565b6000602082019050818103600083015261183a816117fe565b9050919050565b7f5365756c206c652063726561746575722070657574206665726d6572206c612060008201527f73657373696f6e2e000000000000000000000000000000000000000000000000602082015250565b600061189d6028836111ff565b91506118a882611841565b604082019050919050565b600060208201905081810360008301526118cc81611890565b9050919050565b7f4c612073657373696f6e2065737420636c6f73652e0000000000000000000000600082015250565b60006119096015836111ff565b9150611914826118d3565b602082019050919050565b60006020820190508181036000830152611938816118fc565b9050919050565b7f566f7573206176657a2064656a6120766f74652e000000000000000000000000600082015250565b60006119756014836111ff565b91506119808261193f565b602082019050919050565b600060208201905081810360008301526119a481611968565b9050919050565b7f496e6465782064652070726f706f736974696f6e20696e76616c6964652e0000600082015250565b60006119e1601e836111ff565b91506119ec826119ab565b602082019050919050565b60006020820190508181036000830152611a10816119d4565b9050919050565b7f5365756c73206c657320656c65637465757273206e6f726d617578207065757660008201527f656e7420766f74657220706f7572206c65732073757065722d656c656374657560208201527f72732e0000000000000000000000000000000000000000000000000000000000604082015250565b6000611a996043836111ff565b9150611aa482611a17565b606082019050919050565b60006020820190508181036000830152611ac881611a8c565b9050919050565b7f5365756c73206c65732073757065722d656c656374657572732070657576656e60008201527f7420766f7465722e000000000000000000000000000000000000000000000000602082015250565b6000611b2b6028836111ff565b9150611b3682611acf565b604082019050919050565b60006020820190508181036000830152611b5a81611b1e565b9050919050565b7f4e487b7100000000000000000000000000000000000000000000000000000000600052601160045260246000fd5b6000611b9b82611106565b9150611ba683611106565b9250828201905080821115611bbe57611bbd611b61565b5b92915050565b6000606082019050611bd96000830186611110565b611be660208301856111e5565b611bf36040830184611110565b949350505050565b6000611c0682611106565b91507fffffffffffffffffffffffffffffffffffffffffffffffffffffffffffffffff8203611c3857611c37611b61565b5b600182019050919050565b60008190508160005260206000209050919050565b60006020601f8301049050919050565b600082821b905092915050565b600060088302611ca57fffffffffffffffffffffffffffffffffffffffffffffffffffffffffffffffff82611c68565b611caf8683611c68565b95508019841693508086168417925050509392505050565b6000819050919050565b6000611cec611ce7611ce284611106565b611cc7565b611106565b9050919050565b6000819050919050565b611d0683611cd1565b611d1a611d1282611cf3565b848454611c75565b825550505050565b600090565b611d2f611d22565b611d3a818484611cfd565b505050565b5b81811015611d5e57611d53600082611d27565b600181019050611d40565b5050565b601f821115611da357611d7481611c43565b611d7d84611c58565b81016020851015611d8c578190505b611da0611d9885611c58565b830182611d3f565b50505b505050565b600082821c905092915050565b6000611dc660001984600802611da8565b1980831691505092915050565b6000611ddf8383611db5565b9150826002028217905092915050565b611df8826111f4565b67ffffffffffffffff811115611e1157611e10611487565b5b611e1b825461177e565b611e26828285611d62565b600060209050601f831160018114611e595760008415611e47578287015190505b611e518582611dd3565b865550611eb9565b601f198416611e6786611c43565b60005b82811015611e8f57848901518255600182019150602085019450602081019050611e6a565b86831015611eac5784890151611ea8601f891682611db5565b8355505b6001600288020188555050505b505050505050565b7f4e487b7100000000000000000000000000000000000000000000000000000000600052603260045260246000fd5b6000606082019050611f056000830186611110565b8181036020830152611f17818561124b565b9050611f2660408301846110f7565b949350505050565b6000606082019050611f4360008301866111e5565b611f506020830185611110565b611f5d6040830184611110565b949350505050565b6000611f7082611106565b9150611f7b83611106565b9250828203905081811115611f9357611f92611b61565b5b92915050565b600060ff82169050919050565b6000611fb182611f99565b9150611fbc83611f99565b9250828203905060ff811115611fd557611fd4611b61565b5b92915050565b6000611fe682611060565b9150611ff183611060565b9250828202611fff81611060565b9150828204841483151761201657612015611b61565b5b5092915050565b600061202882611060565b915061203383611060565b9250828201905073ffffffffffffffffffffffffffffffffffffffff81111561205f5761205e611b61565b5b92915050565b600061207082611106565b91506000820361208357612082611b61565b5b60018203905091905056fea26469706673582212201b057cc3d12e732855c4da7b9f1a7c3a04c4d356b74a511df108d96e79111d7164736f6c634300081c0033",
  "linkReferences": {},
  "deployedLinkReferences": {}
}